:020000040800F2
:10000000780C0020ED010008894A0008932E0008B2
:10001000654A00086D0B0008D56E0008000000005E
:10002000000000000000000000000000714E000809
:100030006F0B0008000000008B4A0008734E000898
:10004000070200080702000807020008070200086C
:10005000070200080702000807020008070200085C
:10006000070200080702000807020008070200084C
:10007000070200080702000807020008070200083C
:10008000070200080000000007020008070200083D
:10009000070200080702000807020008070200081C
:1000A000070200080702000807020008070200080C
:1000B00007020008070200080702000807020008FC
:1000C00007020008070200080702000807020008EC
:1000D00007020008A55B00080702000807020008E5
:1000E00007020008070200080702000807020008CC
:1000F00007020008070200080702000800000000CD
:1001000000000000070200080000000007020008CD
:100110000702000800000000194F0008070200084D
:10012000070200080702000807020008070200088B
:10013000070200080000000000000000070200089D
:10014000070200080702000800000000000000008D
:10015000000000000000000000000000000000009F
:10016000000000000000000000000000070200087E
:10017000070200080000000000000000000000006E
:10018000000000000702000800000000000000005E
:10019000000000000000000000000000000000005F
:1001A000000000000000000007020008070200082D
:1001B000070200080702000807020008000000000C
:1001C000000000000702000800000000000000001E
:1001D0000702000807020008DFF80CD000F0A4FABC
:1001E0000048004735730008780C00200648804717
:1001F00006480047FEE7FEE7FEE7FEE7FEE7FEE70C
:10020000FEE7FEE7FEE7FEE7FD4E0008D901000825
:100210002DE9F05F0546002092469B46884606463B
:10022000814640241BE0284641464746224600F0CE
:10023000CAF953465A46C01A914110D3114618467E
:10024000224600F0B1F92D1A67EB01084F4622460D
:100250000120002100F0A8F917EB00094E41201EF3
:10026000A4F10104DFDC484631462A464346BDE896
:10027000F09FD2B201E000F8012B491EFBD270477B
:100280000022F6E710B513460A4604461946FFF762
:10029000F0FF204610BD10B5002200E0521C835C28
:1002A0008C5CA34201D1002BF8D1D8B2E1B2401A44
:1002B00010BD00000FB400B58DB010A909900B90CF
:1002C00000914FF0FF300A9000200C9005480690F6
:1002D000054807906A4609A80F9900F099F90DB0F2
:1002E0005DF814FB2D0600084B0600082DE9FF5FA2
:1002F0001D464FF0FF3BD5E9014691465F464FF062
:100300000008A9697F1C01988847296A82468847A6
:100310000028F6D1BAF1FF3F0CD024F4C064002EBF
:1003200019DD600614D5BAF12B0F09D0BAF12D0FE3
:100330000ED103E0584604B0BDE8F09F44F4806459
:10034000A9697F1C01988847761E8246002E02DD2F
:10035000BAF1300F03D0B9F1000F26D032E0A9690D
:10036000761E44F400747F1C019888478246002E54
:1003700005DDBAF1780F06D0BAF1580F03D0B9F104
:10038000000F10D01EE0B9F1000F02D0B9F1100F2C
:1003900018D1A969761E24F400747F1C019888473F
:1003A0008246102002E0082000E00A20814609E091
:1003B00008FB0908A969761E44F400747F1C0198A3
:1003C00088478246002E05DD4946504600F00BF96D
:1003D0000028EDDAE96901988847A00502D46FF09A
:1003E0000100A8E7E00725D1600613D5600502D516
:1003F000C8F1000000E0404629680A1D2A6009682B
:10040000220501D5087015E0220701D5088011E00A
:1004100008600FE02868011D29600068210502D5E9
:1004200080F8008006E0210702D5A0F8008001E0F6
:10043000C0F8008038467EE72DE9FE4F81EA0304CC
:1004400004F0004421F0004100944FF0000B23F031
:10045000004350EA01045ED052EA03045BD0C3F3C8
:100460000A54C1F30A552C44A4F2F3340194A0FBBE
:100470000254C1F3130141F48011C3F3130343F495
:10048000801301FB024400FB034E840A970A44EAEE
:10049000815447EA8357A4FB076802958D0A05FB40
:1004A00007854FEA932C04FB0C542705029D4FEA65
:1004B000065847EA1637B5EB08056EEB070C870EB2
:1004C000920E47EA811742EA8312A7FB0201B6EBBC
:1004D0000B0164EB00042B0D43EA0C335E1844EB74
:1004E0001C50DA465146E7FB0201C5F313044FEAFC
:1004F0000B3343EA14534FEA0432019C43EA0603E8
:10050000A4F10C040294009CCDE900B400F0BDF805
:1005100003B0BDE8F08F00200146F9E70EB5C10F2A
:1005200080EAE0700844CA07002140F233438DE8B6
:100530000E000A460B4600F0A8F803B000BD70B5E7
:10054000C1F30A5201F000450024C1F3130140F247
:10055000FF3341F480119A4201DA002070BD40F26D
:1005600033439A42A2F2334203DC524200F02BF8AA
:1005700000E090402C43F1D0404270BD30B50B46B6
:10058000014600202022012409E021FA02F59D42C3
:1005900005D303FA02F5491B04FA02F52844151E97
:1005A000A2F10102F1DC30BD202A04DB203A00FA7E
:1005B00002F1002070479140C2F1200320FA03F3BA
:1005C000194390407047202A04DB203A21FA02F0B8
:1005D0000021704721FA02F3D040C2F1200291407D
:1005E0000843194670473A2800D2303820F02002DC
:1005F000412A01D3A2F13700884201D34FF0FF30E6
:100600007047000002681144137801601846704773
:10061000D160044951610449116200211161114600
:1006200000F09AB8050600084D070008426842B17C
:10063000016811F8013B23B1521EC0E900121846AF
:1006400070470121C160881E704742685AB1C36873
:10065000016843B983688B4205D0491E521CC0E92A
:100660000012002070474FF0FF30704710B5141E85
:1006700073F1000408DA401C41F1000192185B415B
:100680001A4301D120F0010010BD2DE9F04D924632
:100690009B4611B1B1FA81F202E0B0FA80F2203249
:1006A0009046FFF781FF04460F4640EA0A0041EA00
:1006B0000B0153465A46084313D0114653EA010032
:1006C00019D0C8F140025046FFF77DFF05460E469F
:1006D000504659464246FFF767FF084305D00120C0
:1006E00004E020463946BDE8F08D0020054346EA87
:1006F000E0762C4337430A986305E40AA0EB080030
:100700000022FD0A44EA47540A3002D5002001467F
:10071000E9E7010510196941DDE90845001969415A
:10072000BDE8F04DA2E70000064C074D06E0E0688A
:1007300040F0010394E8070098471034AC42F6D328
:10074000FFF74EFD1C8600083C860008C0B24FF43F
:10075000F05100F097B900002DE9F34F8BB04FF046
:10076000000801F10C000C464FF0010B46460DF15C
:10077000080A01906269012101989047051E2DD059
:10078000252D2CD0216A8847C0B1626901210198CA
:100790009047216A88470028F7D1411E6269019875
:1007A000904700E0761CA1690B988847216A88472A
:1007B0000028F7D1E1690B988847DBE7A1690B981E
:1007C00088470746A84201D1761CD3E7E1690B9818
:1007D00088477F1C02D1B8F1000F6FD046E1002797
:1007E00062693D463946019890472A2804D16269DA
:1007F0000121019890470125DFF884926269012167
:1008000001989047A0F130010A290AD24F45E5DC52
:1008100007EB870100EB4107303FDFD445F01005BF
:10082000ECE7E90601D46FF000476C280AD04C28A9
:1008300014D0682815D06A280DD074281CD07A28C6
:100840001AD01DE062690121019890476C2802D0FE
:1008500045F0040514E045F002050DE045F02005E3
:100860000AE06269012101989047682802D045F0AA
:10087000080505E045F4006562690121019890478B
:10088000C4E9015765283DD019DC58287AD00CDC22
:10089000452837D004DC252826D0412831D131E045
:1008A00046282FD047282CD12CE05B2877D0612810
:1008B00028D063287CD0642823D15AE0D0E06F2868
:1008C00048D008DC66281DD067281BD0692821D0B5
:1008D0006E2816D127E0702845D0732868D0752877
:1008E00047D078280DD14DE0A1690B98884705467F
:1008F00025283FF469AFE1690B9888476D1C3FF4E8
:100900006AAFB3E023466A466FF001000B99AFF37C
:1009100000809EE045F040006060A80723464FF04D
:10092000000236D43EE0E8077FF447AF2068011D9F
:1009300021600068290501D506701BE7290701D54C
:10094000068017E7A90703D5F117C0E9006111E791
:1009500006600FE745F040006060A80723464FF0AF
:10096000080216D41EE040F60E0125EA0100606080
:1009700016E045F040006060A80723464FF00A02E9
:1009800007D40FE045F040006060A80708D5234673
:1009900010226FF001000B99AFF3008059E007E0DF
:1009A000234610226FF001000B99FFF79FFC50E0E7
:1009B0004FF000094F464B46632802D05B2806D013
:1009C00040E0E80601D40120A06001273AE0626916
:1009D0000121019890475E2805D14FF00109626915
:1009E000494601989047216939B900210A46534682
:1009F00043F82120491C0829FADBB0B3216969B901
:100A0000C11700EBD16253110AEB830122F01F02E0
:100A1000821A01200B68904003430B606269012138
:100A2000019890475D28E8D1B9F1000F09D0002066
:100A3000514651F82020D24341F82020401C08287C
:100A4000F7DB02AB224600976FF001000B99AFF382
:100A5000008000280CDA401C08D1BBF1000F05D043
:100A60004FF0FF300DB0BDE8F08FFFE74046F9E7EB
:100A7000E90701D108F1010806444FF0000B79E6BF
:100A8000CCCCCC0C7F2801D9002208E0064A02EB2E
:100A90005002C007127800D1120902F00F020120A3
:100AA00090400840704700008C85000870B58C1895
:100AB00010F8015B15F0070301D110F8013B2A1172
:100AC00006D110F8012B03E010F8016B01F8016B5F
:100AD0005B1EF9D12B0705D40023521E0DD401F85B
:100AE000013BFAE710F8013BCB1A921C03E013F824
:100AF000015B01F8015B521EF9D5A142D8D3002059
:100B000070BD000070B504460068816811F0010FE7
:100B100028D18168144A114215D18168D5432940F2
:100B2000491C816000F0B6FD064616E0816811F0B0
:100B3000010F03D181682940491C816000F0AAFDA2
:100B4000801B022809D9E06D40F01000E065206E9E
:100B500040F001002066012070BD20680168C94393
:100B6000C907E3D1002070BD3F000080FEE7704759
:100B7000002240F6B83306E00021491C89B29942B0
:100B8000FBD3521C92B28242F6D3704770470000EA
:100B90002DE9F047044690F858009CB00D464FF000
:100BA0000008012814D0012084F8580020684FF074
:100BB000A0474FF00009B8420ED1284E00963046AB
:100BC00003F074FC8246206803F070FC60B10EE014
:100BD00002201CB0BDE8F087E16D41F02001E16525
:100BE00084F858900120F4E7BAF1000F0AD0E06DC4
:100BF00040F02000E0654FF0010800BF84F85890F5
:100C00004046E6E716482A6840F61F71002A8268C7
:100C100022F4604215D094F8383042EA43326B68CF
:100C20001A438260BA68B36802F0010203F001035C
:100C30001A43E3D1AB682A681A4383688B431A438B
:100C40000AE08260BA68B36802F0010203F00103AF
:100C50001A43D3D182688A438260CFE700010050F3
:100C6000000300502DE9F84F00270446009790F844
:100C70005800DFF8DC930D46B846012811D0012654
:100C800084F85860206803F00DFC60B1E06D40F01E
:100C90002000E0655FF0010784F858803846BDE821
:100CA000F88F0220FBE7D5E900210C23206803EA36
:100CB00091131844036B01F01F014FF01F0C0CFA45
:100CC00001FCC2F3846223EA0C038A4013430363EA
:100CD000206803F0E7FB8246206803F0DFFB5AEA56
:100CE00000003CD1AA6829682068B2F1004F37D0D3
:100CF00003F0E0FB2068416921F000414161206878
:100D00006969C268C2F3C102520091402A69042A8B
:100D100031D000EB82002B68026EDFF838C303F09D
:100D2000F84302EA0C020B431A4342F00041016609
:100D300022682869A96902EB8000026E22F08072A5
:100D40000A430266297F20682A69012910D0002100
:100D500000EB8200026E22F000720A4302667DE020
:100D6000002203F0A7FB2068416941F00041C5E77C
:100D70004FF00071ECE7002103F08AFB400320688C
:100D80004FF0000172D003F083FB90FAA0F0B0FAAC
:100D900080F1286842036ED090FAA0F0B0FA80F09B
:100DA000814204D100221146206803F092FB012108
:100DB000206803F06DFB400320684FF001015DD017
:100DC00003F066FB90FAA0F0B0FA80F128684203C5
:100DD00059D090FAA0F0B0FA80F0814204D10022FC
:100DE0000121206803F075FB0221206803F050FB0D
:100DF000400320684FF0020148D003F049FB90FA0D
:100E0000A0F0B0FA80F12868420344D090FAA0F034
:100E1000B0FA80F0814204D100220221206803F060
:100E200058FB0321206803F033FB400320684FF098
:100E3000030133D003F02CFB90FAA0F0B0FA80F15C
:100E4000286842032FD090FAA0F0B0FA80F08142D7
:100E500004D100220321206803F03BFB2068816855
:100E600011F0010F22D0ACE000E004E003F010FB31
:100E7000C0F384618DE7C0F3846091E703F008FB61
:100E8000C0F38461A2E7C0F38460A6E703F000FB2F
:100E9000C0F38461B7E7C0F38460BBE703F0F8FAFE
:100EA000C0F38461CCE7C0F38460D0E72A7B296873
:100EB00050F8B03FC1F3120C23EA0C0302F0180CF7
:100EC000654A22FA0CF20A4013430360E968494577
:100ED00077D1286841031CD090FAA0F1B1FA81F1D2
:100EE000491C01F01F0109294FEA403132D800297D
:100EF00012D000BF90FAA0F1B1FA81F101F1010125
:100F000001F01F0106FA01F609D100BFC0F38461A8
:100F100009E0C0F38461E3E7C0F38461EEE790FA8F
:100F2000A0F1B1FA81F101F1010101F01F0146EADE
:100F3000816102D1C0F3846003E090FAA0F0B0FABE
:100F400080F000F1010000F01F0000EB400041EADA
:100F5000005132E000290ED090FAA0F1B1FA81F1EF
:100F600001F1010101F01F0106FA01F606D100BFEF
:100F7000C0F3846106E0C0F38461F1E790FAA0F168
:100F8000B1FA81F101F1010101F01F0146EA81612D
:100F900002D1C0F3846003E090FAA0F0B0FA80F0D0
:100FA00000F1010000F01F002C4A00EB400002EBB2
:100FB000005041EA000141F00071AA68206803F086
:100FC00079FA27482A6802423FF466AE25488168CC
:100FD000254B01F0E0719A4202D0244B9A421BD17A
:100FE0000B0219D42268B2F1A04F7FF455AE82688B
:100FF00041F4000122F0E0720A4382601C481D495E
:101000000068B0FBF1F000EB4000800000E0401E03
:1010100000900028FBD13FE6174D184BAA4207D19C
:10102000CD0105D422689A42F5D041F0807109E0E3
:10103000134DAA42EFD14A02EDD422689A42EAD077
:1010400041F48001826822F0E0720A43826023E664
:1010500000007F4000F0FF03FFFF0700000020FEBC
:101060000000088000030050000021C31000C09061
:101070004C000020400D0300000052C7000100504A
:10108000000084CB0068006C70470000F8B54FF09A
:10109000000504002E46009502D0E06D10B107E077
:1010A0000120F8BD204600F0EDF8266684F858606F
:1010B00020688168C1F3407119B18168694A1140A3
:1010C000816020688168C1F3007179B98168664ADE
:1010D000114041F080518160644865490068B0FB6F
:1010E000F1F000E0401E00900028FBD120688168EC
:1010F000C1F3007141B9E16D41F01001E165216E6C
:1011000041F001012166012503F0CCF9E16DC9062A
:1011100000D430B1E06D40F01000E06501252846B4
:10112000F8BDE06D20F4807040F00200E0652068BA
:10113000806810F0010F11D14FF0A04080684D4938
:1011400000F00100896801F00101084306D14A4816
:101150006168826822F47C120A438260E168E06B75
:10116000627F0843A16841EA4231084394F82410A1
:1011700040EA0140012904D1218D404A02EB41415E
:101180000843E16A29B101F47871226B014342EA14
:1011900001002168CA683A4B1A400243CA602068BD
:1011A0000169626B21F0406111430161206803F025
:1011B00079F90646206803F071F930432ED1207F7B
:1011C00094F83810800340EA41022068C16844F274
:1011D000020399431143C160206900282068016916
:1011E0000AD041F480310161206850F8C01F2269A3
:1011F0006FF30D01114307E021F480310161206894
:1012000050F8C01F6FF30D01016094F840000128F1
:101210000CD02068016921F0010101616069012899
:101220002068016B21F00F0111D013E0D4E9110106
:101230000843D4E913121143084321680A6940F2B4
:10124000FC739A43104340F001000861E6E7226A0C
:10125000521E11430163E06D20F0020040F00100D6
:10126000E0655CE7C0FFFF5FC0FFFF7F4C00002030
:10127000400D030000010050000300500000FEFF7D
:101280000740F0FFF0B587B0044614216846FEF72A
:10129000F7FF214B266800241A6803251F482049C0
:1012A000521CB6F1A04F06D01E4FBE4231D11A607B
:1012B000012A16D01DE01A60012A07D1CA6C42F437
:1012C0000052CA64CA6C02F400520592CA6C42F021
:1012D0000202CA64C96C01F0020105914FF4805109
:1012E00011E0CA6C42F40052CA64CA6C02F40052A3
:1012F0000592CA6C42F00202CA64C96C01F0020194
:1013000005914FF40041CDE900150294694600F0C3
:10131000D3F807B0F0BD00003C00002000040048F6
:1013200000100240000100502DE9F0410446384809
:10133000806800F01F05206803F0B4F818B102219E
:101340000846BDE8F08194F8580001280CD001202F
:1013500084F858002046FFF7D5FB01004FF000034A
:1013600004D084F85830EBE70220EAE7E06D40F65D
:101370000162904340F48070E065264A20684FF097
:10138000A046904201D1374600E00746874200D090
:101390001DB9E76D27F48017E765E76DFF0404D5F5
:1013A000276E27F00607276600E023661C270760E4
:1013B00084F858302068904201D1334600E003465B
:1013C000834215D0A5B1052D12D0092D10D0E36DA3
:1013D00043F48013E365904200D13046C068800139
:1013E000AED5E06D20F4005040F48050E065A7E7F2
:1013F000C268920105D5E26D22F4005242F4805297
:10140000E2658268044B1A40121D826098E7000072
:101410000003005000010050C0FFFF7F70B590F83E
:101420002520002401212346022A07D00422C2637A
:1014300080F8251080F82430012429E0026815681E
:1014400025F00E0515600268156825F00105156088
:10145000826C156825F48075156090F84420056C41
:1014600002F01F0201FA02F26A60D0E9132555600A
:10147000426D32B1156825F480751560D0E91625E6
:10148000556080F8251080F82430816B01B18847C1
:10149000204670BD70B5044600F0FCF80546601C9F
:1014A00002D004484068044400F0F4F8401BA04215
:1014B000FAD370BD400000202DE9FC4FDFF8A0A159
:1014C000002301250AF1040B03244FF00F0C0BF14C
:1014D000040EBDE005FA03F632406FD04F68012FCD
:1014E00005D0022F03D0112F01D0122F17D1D0F821
:1014F00008905F0004FA07F829EA08090097D1F874
:101500000C8008FA07F848EA0908C0F8088047681C
:10151000B7430E79C6F300169E403E434660C66848
:101520004FEA430804FA08F7BE4301978F6807FAA9
:1015300008F73743C7604E68022E01D0122E13D130
:10154000DE0800EB86060096366A5F07FF0E0CFA8F
:1015500007F926EA0906D1F8109009FA07F949EACD
:101560000609009EC6F820900668019FBE430F79C9
:1015700007F0030707FA08F7374307604E68F600DD
:1015800065D5384E376E47F001073766366E23F063
:10159000030706F001060096334E3E44B146B66896
:1015A0009F074FEA17780CFA08F7BE43B0F1904F47
:1015B00005D02E4FB84204D1012717E047E000279D
:1015C00014E02B4FB84201D102270FE0294FB84257
:1015D00001D103270AE0284FB84201D1042705E0D2
:1015E000264FB84201D1052700E0062707FA08F781
:1015F0003743C9F80870DAF800605746D1F804801C
:1016000096435FEAC83800D516433E60DBF80060B9
:101610005F46D1F8048096435FEA883800D51643C8
:101620003E60DEF800607746D1F8048096435FEABA
:10163000C82800D516433E60094F0C373E68D1F8E4
:10164000048096435FEA882800D516433E605B1C01
:101650000A6832FA03F67FF43DAFBDE8FC8F000064
:101660000004014000100240000001400004004856
:1016700000080048000C0048001000480014004812
:101680000069084000D0012070470AB181617047AD
:101690008162704701488068704700004000002068
:1016A0000248816842681144816070474000002010
:1016B00010B50024032000F077F8002000F008F8AF
:1016C00008B1012401E000F025F8204610BD00001B
:1016D00070B50E4E05460024706898B14FF47A71CB
:1016E000B1FBF0F00A490968B1FBF0F000F0E2FE4E
:1016F00040B9102D06D200222946501E00F034F8C1
:10170000356000E00124204670BD0000400000204C
:101710004C0000200B4808B5016E41F00101016644
:10172000016E01F001010091816D41F080518165F0
:10173000806D00F0805000900348816841F4804142
:10174000816008BD0010024000700040002809DBE5
:1017500000F01F02012191404009800000F1E020CB
:10176000C0F8001170470000F0B40E4B1B680C4627
:10177000C3F30223C3F10705042D00D90425191D65
:10178000072901D2002300E0DB1E012606FA05F13D
:10179000491E214099409E40761E16403143F0BCC0
:1017A00005F0BEBB0CED00E0064900F0070208683A
:1017B0004FF6FF03184040EA0220034A1043086036
:1017C000704700000CED00E00000FA052B492C4B9F
:1017D0000A6832214A432B4940B1B0F5007F0868BE
:1017E00029D020F4C06040F480602CE00868C0F389
:1017F0004120022804D051F8800F20F4807022E0AC
:10180000D1F8800020F48070C1F88000086820F4CE
:10181000C06040F400700860B2FBF3F0401C00E0D0
:10182000401E4A69520501D50028F9D14869400592
:101830000AD503207047C0F34120022806D051F892
:10184000800F40F48070086000207047D1F880005D
:1018500040F48070C1F88000086820F4C06040F453
:1018600000700860B2FBF3F0401C00E0401E4A69C3
:101870005205DBD50028F9D1D8E700004C00002044
:1018800040420F00007000402DE9F8430446006814
:1018900000269D4D00035ED5A86D0027C00008D42A
:1018A000A86D40F08050A865A86D012700F0805019
:1018B0000090DFF85892D9F8001041F48071C9F80F
:1018C0000010FFF7E7FE804606E000BFFFF7E2FEEC
:1018D000A0EB080002282BD8D9F80000C005F5D5E8
:1018E000D5F8900010F4407014D0216C814211D0D2
:1018F000D5F89000D5F8901020F4407041F4803174
:10190000C5F89010D5F8901021F48031C5F89010EA
:10191000C5F89000C00711D0FFF7BCFE804641F229
:10192000883907E0FFF7B6FEA0EB0801494501D969
:1019300003260BE0D5F890008007F3D5D5F890008A
:10194000216C20F440700843C5F890001FB1A86DC9
:1019500020F08050A8652078C00707D0D5F888000F
:10196000616820F003000843C5F8880020788007EC
:1019700007D5D5F88800A16820F00C000843C5F809
:1019800088002078400707D5D5F88800E16820F066
:1019900030000843C5F888002078000707D5D5F83F
:1019A0008800216920F0C0000843C5F8880020782D
:1019B000800607D5D5F88800616920F440600843A7
:1019C000C5F888002078400607D5D5F88800A169B9
:1019D00020F440500843C5F888002078000607D559
:1019E000D5F88800E16920F440400843C5F8880034
:1019F0002088C00507D5D5F88800216A20F440303A
:101A00000843C5F888002088800507D5D5F88800E8
:101A1000616A20F440200843C5F88800208840050A
:101A20000FD5D5F88800A16A20F440100843C5F806
:101A30008800A06AB0F5801F03D1E86840F48010E8
:101A4000E860208800050FD5D5F88800E16A20F409
:101A500040000843C5F88800E06AB0F5800F03D164
:101A6000E86840F48010E8602088C0040FD5D5F8FD
:101A70008800216B20F040700843C5F88800206B77
:101A8000B0F1807F03D1E86840F48010E8602088DE
:101A90004FF0006180040ED5D5F88800626B20F00D
:101AA00040601043C5F88800606B884203D1E86845
:101AB00040F48010E860208840040ED5D5F88800F6
:101AC000A26B20F040601043C5F88800A06B8842EC
:101AD00003D1E86840F48010E860208800040FD546
:101AE000D5F88800E16B20F040500843C5F8880025
:101AF000E06BB0F1805F03D1E86840F48030E860CB
:101B00003046BDE8F883000000100240007000403D
:101B10002DE9F0470E4605004FF0000725D0DFF80D
:101B2000AC81D8F8000000F00F00B0420CD2D8F819
:101B3000001021F00F013143C8F80010D8F8000060
:101B400000F00F00B04210D12968614CC80741F283
:101B5000883A5AD06868DFF87C91032808D00228B8
:101B600020682DD0400500282CDB0120BDE8F0873F
:101B700020688001F9D5E06800F00302E068C0F356
:101B80000310401C032A19D0534A00BFB2FBF0F0E7
:101B9000E268C2F306225043E268C2F34162521C7B
:101BA0005200B0FBF2F0484517D9A06810F0F00FD2
:101BB0000CD0880711D5A86840B10EE0474AE5E788
:101BC0008003D0E700F0B6F8484506D9A06820F0B9
:101BD000F00040F08000A0608027A068696820F0D5
:101BE00003000843A060FFF755FD814606E000BFF3
:101BF000FFF750FDA0EB090151453AD8A06869688C
:101C000000F00C00B0EB810FF2D12868810714D5E9
:101C1000400703D5A06840F4E060A0602878000782
:101C200005D5A06820F4605040F4E060A060A06892
:101C3000A96820F0F000084304E0802F03D1A068D9
:101C400020F0F000A060D8F80010404601F00F012D
:101C5000B14216D9016821F00F0131430160FFF74D
:101C600019FD074607E000BFFFF714FDC11B5145F2
:101C700001D903207AE7D8F8000000F00F00B04245
:101C8000F2D12878400705D5A068E96820F4E06023
:101C90000843A0602878000706D5A068296920F4C9
:101CA000605040EAC100A06000F044F8A1680C4A0E
:101CB000C1F30311515C01F01F01C84009490860DC
:101CC00009480068BDE8F047FFF702BD0020024068
:101CD0000010024000B4C4040024F40000366E0179
:101CE000A47300084C00002040000020054806496D
:101CF00000688968054AC1F30221515C01F01F01A7
:101D0000C84070474C00002000100240B473000827
:101D10000548064900688968054AC1F3C221515C3B
:101D200001F01F01C84070474C0000200010024025
:101D3000B4730008184910B58868C0F381021748C9
:101D4000012A0BD08A68164BC2F38102022A06D000
:101D50008A68C2F38102032A03D0002010BD18460E
:101D600010BDCA6802F00304CA68C2F30312521C11
:101D7000032C02D0B0FBF2F001E0B3FBF2F0CA6832
:101D8000C968C2F306225043C1F34161491C4900AE
:101D9000B0FBF1F010BD0000001002400024F40080
:101DA00000366E012DE9F84304007AD02078FA4D10
:101DB000C00747D0A868E96800F00C0001F00301F3
:101DC0000C2802D0082817D001E0032914D060683D
:101DD000B0F5803F17D0B0F5A02F286817D020F4B9
:101DE00080302860286820F4802028606068E0B196
:101DF000FFF750FC064614E02868800322D560688F
:101E00000028D2D01EE0286840F48030EDE740F48E
:101E100080202860F7E700BFFFF73CFC801B6428A8
:101E200070D828688003F7D50CE0FFF733FC06462E
:101E300005E000BFFFF72EFC801B6428F0D828685F
:101E40008003F7D4207880074CD5A868E96800F0B3
:101E50000C0001F003010C2802D004280DD001E091
:101E600002290AD0E068002828682BD040F480704E
:101E70002860FFF70FFC064619E02868400502D5E8
:101E8000E068002891D06868217C20F0FE4040EA9C
:101E900001606860C1480068FFF71AFC002800D1A3
:101EA00020E076E1FFF7F6FB801B0228B8D828680F
:101EB0004005F7D56868217C20F0FE4040EA0160CB
:101EC00068600FE020F480702860FFF7E3FB0646AF
:101ED00005E000BFFFF7DEFB801B0228A0D82868C2
:101EE0004005F7D42078000729D560690028D5F887
:101EF000940013D040F00100C5F89400FFF7CAFB2E
:101F0000064606E090E000BFFFF7C4FB801B0228F6
:101F100086D8D5F894008007F6D510E020F00100AF
:101F2000C5F89400FFF7B6FB064604E0FFF7B2FBE6
:101F3000801B022878D8D5F894008007F6D4207842
:101F4000400761D5A86D0026C00008D4A86D40F0F8
:101F50008050A865A86D012600F080500090904840
:101F60000168C90511D40168804641F4807101609F
:101F7000FFF790FB074604E0FFF78CFBC01B02282D
:101F800052D8D8F80000C005F6D5A068012815D0B1
:101F90000528D5F8900016D020F00100C5F8900073
:101FA000D5F8900020F00400C5F89000A06841F238
:101FB0008838B8B1FFF76EFB07460EE0D5F8900001
:101FC00040F00100F0E740F00400C5F89000F5E7AC
:101FD000FFF760FBC11B414526D8D5F8900080076C
:101FE000F6D50CE0FFF756FB074604E0FFF752FB7F
:101FF000C11B414518D8D5F890008007F6D41EB112
:10200000A86D20F08050A8652078800629D5A069A9
:102010000028D5F8980013D040F00100C5F89800CA
:10202000FFF738FB064606E077E000BFFFF732FB1C
:10203000801B022877D8D5F898008007F6D510E0E5
:1020400020F00100C5F89800FFF724FB064604E0E5
:10205000FFF720FB801B022865D8D5F89800800781
:10206000F6D4E069F0B3A968C1F38101032961D016
:102070000228286820F0807028600BD0E86820F0E3
:102080000300E860E86847490840E860FFF702FBA2
:1020900004464BE0FFF7FEFA064604E0FFF7FAFAC3
:1020A000801B02283FD828688001F7D4F4E9080192
:1020B0006FF00F0202EB01110843218A5204490814
:1020C00002EB4151A26841EA02210843217D4FF011
:1020D0007E42490802EB41610843217B40EAC1602E
:1020E000E96800E062E0304A11400843E86028688F
:1020F00040F080702860E86840F08070E860FFF78A
:10210000C9FA044605E000BFFFF7C4FA001B022825
:1021100009D828688001F7D548E004E0FFF7BAFA4B
:10212000001B022802D90320BDE8F883286880013B
:10213000F4D43BE00128F7D0E868226A00F00301FC
:10214000914226D1616A00F0F002090110399142F2
:102150001FD1A26A00F4FE41B1EB022F19D194F80D
:102160002C2000F07841B1EBC26F12D1218E00F427
:10217000C00249084905A1F50011914209D194F81E
:10218000341000F0C06049084906A1F10071814295
:102190000CD00120C8E700000010024040000020E1
:1021A00000700040FFFFEEFE0C809F010020BBE7A7
:1021B0000F4810B50B4601680E480140080CD87056
:1021C000C1F304245C7001F03F049C70C1F3423100
:1021D000197052B902F0E4FDD870587802F0E0FDB1
:1021E0005870987802F0DCFD9870002010BD000057
:1021F000042800403FFFFF00144810B500680B465C
:102200004860124808300068C0F30E0088600F482C
:10221000083801680E480140C1F305401870C1F349
:1022200006245C7001F07F049C70890DD97052B94E
:1022300002F0B6FD1870587802F0B2FD5870987828
:1022400002F0AEFD9870002010BD0000082800408C
:102250007F7F7F0070B504004FF001003ED094F8FE
:10226000250028B9002084F82400204600F03CF81E
:10227000022084F825001A4ECA20306053203060B6
:10228000204602F0A3FD10BB154D0C3D28681549F2
:102290000840286028686168A269084321691143E1
:1022A000084328602189E06840EA01400C4914395C
:1022B0000860204602F0B0FD48B9D4E90721114377
:1022C00062692B6823F060431A4311432960FF21A0
:1022D0003160002802D1012184F8251070BD000072
:1022E00024280040BFFF8FFB00680549884205D1C4
:1022F000044850F8901F41F400410160704700000D
:1023000000280040001002402DE9F041044690F8FA
:1023100024000B4601281AD0012684F824600220EC
:1023200084F82500B2B19878D97840EA0145587808
:102330001978000240EA413005431B4FCA2038603B
:1023400053203860204602F041FDD8B122E002203F
:10235000BDE8F0815878C10603D500F0EF000A30DF
:102360005870D87802F025FD0504587802F021FD58
:1023700045EA0025987802F01CFD0543187845EAE7
:102380004035DAE70948054007482038056020460F
:1023900002F042FDFF21396008B984F82560002170
:1023A00084F82410D4E70000242800403FFFFF00F9
:1023B0002DE9F047054690F8240017460C46012801
:1023C00014D04FF0010985F82490022085F82500EB
:1023D000DFF8A480CA21C8F800105321C8F8001003
:1023E000284602F0F3FC002618B127E00220BDE8E1
:1023F000F087214B0C3B18684FEA40601FB3002860
:1024000000DBE670A0782178E27840EA014061784C
:10241000090241EA82510843184908401649243903
:102420000860186820F480201860D4E9030108438C
:10243000196808431860284602F0EEFCFF22C8F82D
:102440000020A0B115E0002800DBE670207802F043
:10245000B0FC0704607802F0ACFC47EA0027A078E3
:1024600002F0A7FC0743E07847EA8050D4E785F8FC
:10247000259085F82460BAE7242800407F7F7F00FC
:1024800070B50B4D286860F0A0002860FFF702F9D6
:1024900004464FF47A7606E0FFF7FCF8001BB042E2
:1024A00001D9032070BD28688006F5D5002070BDD5
:1024B0000C28004010B5401EB0F1807F01D30120F0
:1024C00010BD4FF0E02460610F21601704F028FD7B
:1024D0000020A06107202061002010BD70477047D8
:1024E0007047704770477047F0B590F83C20012A5C
:1024F0003AD0012580F83C50022280F83D20036844
:102500005A689C68194E1A4FB34201D0BB4204D19D
:1025100022F4700C4A6842EA0C02DFF858C002EA62
:102520000C02D1F800C04CEA020CC3F804C00268E7
:10253000B2420DD0B2F1804F0AD00F4B9A4207D071
:102540000E4B9A4204D0BA4202D00D4B9A4204D1AB
:10255000896824F080031943916080F83D50002180
:1025600080F83C100846F0BD0220F0BD002C014070
:10257000003401408FFFFFFD0004004000080040D0
:1025800000400140704710B5040003D094F83D00AE
:1025900010B107E0012010BD002084F83C00204667
:1025A00000F022F8022084F83D00211D206802F08E
:1025B000B9FC012084F8480084F83E0084F83F000C
:1025C00084F8400084F8410084F8420084F8430015
:1025D00084F8440084F8450084F8460084F84700F5
:1025E00084F83D00002010BD08B5154A0168154863
:1025F00091420ED1816D41F010018165806D002204
:1026000000F01000009002213620FFF7ADF83620D0
:1026100010E00D4A914211D1816D41F02001816598
:10262000806D002200F02000009003213720FFF78A
:102630009BF83720BDE80840FFF788B808BD0000C8
:1026400000100040001002400014004090F83D10BF
:10265000012901D001207047022180F83D10016856
:10266000CA6842F00102CA6000688168064A1140E7
:10267000062906D0B1F5803F03D0016841F0010181
:10268000016000207047000007000100704770B52E
:102690000446006801694FF00005C943890715D455
:1026A000C168C943890711D4E91E0161012020775F
:1026B000206880698007204602D0FFF7E7FF04E02A
:1026C00000F0E3F8204600F0E1F825772068016982
:1026D000C943490717D4C168C943490713D46FF0E8
:1026E00004010161022020772068806910F4407F96
:1026F000204602D0FFF7CAFF04E000F0C6F82046EB
:1027000000F0C4F8257720680169C943090716D489
:10271000C168C943090712D46FF0080101610420A0
:1027200020772068C0698007204602D0FFF7AEFFFF
:1027300004E000F0AAF8204600F0A8F82577206809
:102740000169C943C90617D4C168C943C90613D46E
:102750006FF010010161082020772068C06910F433
:10276000407F204602D0FFF791FF04E000F08DF893
:10277000204600F08BF8257720680169C943C90716
:1027800008D1C168C943C90704D1891E0161204627
:1027900000F07EF820680169C943090609D4C168C0
:1027A000C943090605D46FF0800101612046FFF797
:1027B00096FE20680169C943C90509D4C168C943A7
:1027C000090605D46FF4807101612046FFF786FE8B
:1027D00020680169C943490609D4C168C94349064B
:1027E00005D46FF040010161204600F0B5F8206883
:1027F0000169C943890609D4C168C943890605D45A
:102800006FF0200101612046FFF76AFE2068016930
:10281000C943C90209D4C168C943C90205D46FF4C8
:10282000801101612046FFF75DFE20680169C94300
:10283000890209D4C168C943890205D46FF4001123
:1028400001612046FFF74DFE20680169C943490236
:1028500009D4C168C943490205D46FF480010161FC
:102860002046FFF740FE20680169C94309020BD4E6
:10287000C168C943090207D46FF400010161204611
:10288000BDE87040FFF77EBE70BD70477047000026
:1028900070B500682D4988424FD12D4D0121284641
:1028A000FEF7EEFE00B101202A4C0221607028469E
:1028B000FEF7E6FE00B10120E07104212846FEF794
:1028C000DFFE00B10120607301214FF09040FEF760
:1028D000D7FE00B101200021E0740B465FF0010536
:1028E00001EB410014F8102022B1012A0AD0022A7B
:1028F00020D112E004EB40025678DEB904F8105003
:10290000938017E004EB4002527812B104F81030C3
:1029100010E0022204F810200CE004EB400256788C
:10292000012E0BD09088401C80B29080462801D99F
:10293000D5709370491C0429D2DB70BD04F81030A7
:1029400090884628F6D29570D370F3E700100040C7
:10295000000400483C080020704790F87C100129D2
:1029600018D0012180F87C102421C0F8801050F884
:10297000601B0A680B6823F001030B6022F0005112
:102980000022426050F8603C196020210162027709
:102990001046704702207047704770B5044690F8A3
:1029A0007C0001281DD0012084F87C002420C4F87C
:1029B000800020680568026822F001020260206839
:1029C000826822F060620A438260204602F002FBC5
:1029D000206805602020C4F88000002084F87C0076
:1029E00070BD022070BD70B5044690F87C000128CF
:1029F0001DD0012084F87C002420C4F880002068C9
:102A00000568026822F0010202602068826822F0F4
:102A100060420A438260204602F0DCFA20680560CA
:102A20002020C4F88000002084F87C0070BD0220C3
:102A300070BD7047704770472DE9F0410368044648
:102A4000D8691A68996810F00F0F4FF0000569D027
:102A50005E4E02F490770E4037437DD0C70709D011
:102A6000D70507D501271F62D4F8883043F001034A
:102A7000C4F8883083070AD5CB0708D0276802231B
:102A80003B62D4F8883043F00403C4F8883043072D
:102A90000AD5CB0708D0276804233B62D4F88830D6
:102AA00043F00203C4F8883003070CD502F020037A
:102AB000334308D0266808233362D4F8883043F0C3
:102AC0000803C4F88830D4F88830002B3CD0800646
:102AD00009D502F0200001F08051084303D0E16ED7
:102AE00009B120468847D4F88800216889684906DA
:102AF00001D400072AD5204602F03CFB20688168FB
:102B000049061ED5816821F040018160A06FC0B1E7
:102B10002F498163A06FFEF781FC002814D0A06FBD
:102B2000816B0AE0860617D502F0200601F0805777
:102B30003E4311D0E16E24E02046BDE8F041084755
:102B40000AE02046FFF777FFBDE8F0812046FFF757
:102B500072FFC4F88850F7E7C60209D54E0207D5C0
:102B60004FF4801018622046BDE8F041FFF762BFC5
:102B7000060609D502F0800601F400010E4303D0D9
:102B8000216F0029D8D1DFE741060DD551060BD5BD
:102B90001968204621F0400119602021C4F88010F6
:102BA000256700F075F9CFE7010206D5510004D57D
:102BB0002046BDE8F041FFF73CBFC001C4D5002A64
:102BC000C2DA2046BDE8F041FFF7E6BE0100001082
:102BD0005F51000810B5040003D0D4F8800010B194
:102BE00007E0012010BD002084F87C00204600F0A2
:102BF00027F82420C4F880002068016821F0010132
:102C00000160204602F0C8FB0128EBD0A06A10B199
:102C1000204602F011FA2068416821F49041416099
:102C20002068816821F02A0181602068016841F0F4
:102C3000010101602046BDE8104002F061BA0000C9
:102C400010B586B0044614216846FDF719FB1749F4
:102C50002068884227D11648016E41F48041016600
:102C6000016E01F480410591C16C41F00101C16424
:102C7000C06C694600F0010005904FF4C060009000
:102C800002200190002002900390072004904FF052
:102C90009040FEF711FC002201212520FEF764FD83
:102CA0002520FEF753FD06B010BD0000003801409E
:102CB0000010024070B5D0F88430202B6DD1B9B12E
:102CC000B2B190F87C30012B67D0012380F87C30C2
:102CD0008165A0F85C20A0F85E200021C1668368B1
:102CE0004FF48056FF24B34207D1036913B11CE0AF
:102CF000012070BD40F2FF131DE07F259BB1B3F1B1
:102D0000805F15D0A0F86010C0F888102223C0F8AA
:102D1000843003689C6844F001049C60436EB3F106
:102D2000005F0ED027E0036943B9A0F86040EBE7ED
:102D300003691BB13F23A0F86030E5E7A0F86050BD
:102D4000E2E7B0F86830934215D88268B24201D108
:102D5000026972B1124AC26680F87C1001680A6882
:102D600042F480720A600068816841F0805181609D
:102D70000FE00C4AEFE78268B24201D1026952B11A
:102D8000094AC26680F87C100068016841F49071BD
:102D90000160002070BD054AF3E7022070BD00000D
:102DA000F9520008F9510008995200089951000899
:102DB0000549064B48780A781A54401C487001228D
:102DC0000348FFF777BF00005000002054080020A0
:102DD000B00700202DE9F8430446D0F880001F46D4
:102DE00016460D46202851D1DDB1D6B194F87C00AD
:102DF00001284BD0012084F87C004FF00008C4F873
:102E000088802120C4F880001834FEF743FCA68790
:102E10008146E68754F8100C183CB0F5805F03D06B
:102E200004E00120BDE8F883206910B12E4600259A
:102E300010E000260EE08021204602F080FEB8B9A6
:102E4000C6B116F8010B21688862B4F85600401E1E
:102E5000A4F85600B4F856004B464FF00002009715
:102E60000028E8D14FF04001204602F068FE30B162
:102E70000320D7E735F8020BC0F30800E3E7202072
:102E8000C4F8800084F87C800020CBE70220C9E7EA
:102E90007047FEE72DE9FF5FDFF800840126052774
:102EA00098F80200FE4D0024012819D1687A022802
:102EB00020D003281ED004281CD005281AD00628AC
:102EC0001AD0072818D0082816D0092814D00A28A4
:102ED00012D00B2810D02E7000F0B6FA88F80240FD
:102EE000687ADFF8C0A3DFF8C0B3DFF8C093012829
:102EF00004D051E06E72EEE76F72ECE798F80800CC
:102F00004146012814D199F800309AF800209A1A05
:102F1000D2B289F800209BF800309A4203D2E44AEA
:102F2000127889F80020E3480670E34804700C72B8
:102F3000887B012814D199F800309AF800201A44AF
:102F4000DB4BD2B289F800201B789A4203D99BF858
:102F5000002089F80020D7480470D74806708C7389
:102F600098F8140001287DD199F80000302804D089
:102F7000602807D0902809D009E002206872EE701E
:102F80002E7104E004206872EE7000E06F722E7003
:102F900000F05AFA88F81440687A032822D198F889
:102FA00014000128DFD1A87900EB0011C34800EB21
:102FB000C100C26F016FC2A003F08EFFCBA003F06F
:102FC0008BFFD3A003F088FF6C712E72A879401C90
:102FD000C0B2A871092803D1AC71D6A003F07CFF60
:102FE00088F81440687A052854D198F808104046AB
:102FF000012914D199F800309AF80010591AC9B271
:1030000089F800109BF80030994203D2A84909784A
:1030100089F80010A7490E70A7490C700472817BD3
:10302000012914D199F800309AF800201A44A04BD5
:10303000D2B289F800201B789A4203D99BF800206D
:1030400089F800209B490C709B490E70847398F896
:103050001400012887D199F8000030280CD04828A6
:103060000CD000E018E160280AD078280AD0902817
:1030700022D0A82822D007E0062004E0072002E0A2
:10308000082000E0092068722E70EE7000F0DCF974
:1030900088F81440AC486A7A00F11E0103911E3191
:1030A0007F4E02911E3178302C364FF0300B0A2AB9
:1030B000CDE9000104D08AE00A20E4E70B20E2E732
:1030C00098F80800012825D1A87A20B101280AD053
:1030D000022810D016E0F078401CC0B2F0706328CF
:1030E00010D9F4700EE07078401CC0B270700C28DB
:1030F00008D9747006E0B078401CC0B2B0701F28C8
:1031000000D9B470664900222C319048FFF7FCF8D2
:1031100088F8084098F80E00012828D1A87A20B134
:1031200001280BD0022812D019E0F078401E10F0D0
:10313000FF00F07013D16320F07010E07078401E33
:1031400010F0FF0070700AD10C20707007E0B078AA
:10315000401E10F0FF00B07001D11F20B070504928
:1031600000222C317948FFF7CFF888F80E4098F804
:1031700014104046012907D1A97A491CC9B2A97285
:10318000022900D9AC72047598F8150001281ED1E7
:103190006F7200F059F92878012816D189F800B02B
:1031A0006949302000F0EAF94820039900F0E6F977
:1031B0006020029900F0E2F97820019900F0DEF930
:1031C0009020009900F0DAF92C7088F81540687AA0
:1031D000AA460B2860D1394D98F80800283D0128EF
:1031E00026D19AF80A0020B101280AD0022810D06E
:1031F00016E02878401CC0B22870182810D92C700E
:103200000EE06878401CC0B268703C2808D9747021
:1032100006E0A878401CC0B2A8703C2800D9B47061
:103220002649002228394948FFF7C2F888F80840A3
:1032300098F80E004646012827D19AF80A1029B1BD
:103240003B2001290BD0022911D017E02878401E1D
:1032500010F0FF00287011D1172028700EE0697857
:10326000491E11F0FF01697008D1687006E0A97865
:10327000491E11F0FF01A97000D1A8700F4900226A
:1032800028393248FFF794F8B473307D012867D1AC
:103290009AF80A10491C5BE085E061E03C080020D8
:1032A000000000205400002055000020570000209E
:1032B00056000020590000205A000020C4010020C0
:1032C00020202020BFE2B7BFCEC2B6C8C9E8B6A84A
:1032D000CEAA2564C9E3CACFB6C82CCAAAB6C8C943
:1032E000E8B6A8CEAA256425250D0A00A1EFA1EF16
:1032F000A1EFBBF5CEEFA1BEC8EBBFE2B3C9B9A643
:10330000A1BFA3A1A1EFA1EFA1EF0D0A0000000052
:103310005F5F5F5F5F5F5F5F5F5F5F5F5F5F5F5FBD
:103320005F5F5F5F5F5F5F5F5F5F5F5F5F5F5F0DFF
:103330000A000000D2D1C8EBBFE2B9FD38C5FABB24
:10334000F5CEEFA3A10D0A00C2000020F006002078
:10335000C9B28AF80A10022901D98AF80A403475DC
:10336000707D01281FD155468AF8097000F06CF86D
:103370002878012816D189F800B01249302000F0D1
:10338000FDF84820039900F0F9F86020029900F058
:10339000F5F87820019900F0F1F89020009900F0FC
:1033A000EDF82C707475414607E000BF00EB400259
:1033B00001EB4202401C9470D4700428F6DBBDE897
:1033C000FF9F0000C200002000B585B014216846B0
:1033D000FCF756FF4FF6FF70009000200321CDE967
:1033E0000201019069460248FEF766F805B000BD8B
:1033F0000008004800B585B014216846FCF740FF7E
:103400004FF6FF70009001200190032003900020F0
:10341000029069460248FEF74FF805B000BD000073
:103420000008004870B5002406462146204600F0FA
:10343000C9FE00F007FF4FF49635304600F0D6FE87
:10344000641CAC42F9D370BD00B511A1182000F086
:1034500095F80FA1302000F091F80DA1482000F060
:103460008DF80BA1602000F089F809A1782000F008
:1034700085F807A1902000F081F805A1A82000F0B0
:103480007DF803A1C0205DF804EB00F077B80000E0
:10349000202020202020202020202020202020202C
:1034A000202020200000000030B587B0142168469D
:1034B000FCF7E6FE1E48C16C41F00401C164C16C1A
:1034C00001F004010591C16C41F00101C164C16CBE
:1034D00001F001010591C16C41F00201C164C06CB1
:1034E000012500F0020005904FF44870CDE9000579
:1034F00000240394694602940E48FDF7DDFF28027C
:1035000003940090CDE901544FF090446946204661
:10351000FDF7D2FFFFF76EFFA06940F48070A06155
:1035200004481830016841F40871016007B030BDEB
:103530000010024000040048203AD2B2034B02EBD4
:10354000420203EB021200F02FB80000BC73000827
:10355000F0B516460C460746002507E021463846DA
:10356000FFF7EAFF103C6D1CA4B2761C3278002AEB
:1035700003D0C4F11400A842F0D8F0BDF0B50E4657
:103580000746002540F23F1407E021463846FFF782
:10359000D3FF103C6D1CA4B2761C3278002A01D0F7
:1035A000142DF2D3F0BD00002DE9F04791468A4674
:1035B0000026044600F006FEDFF84080012700BF29
:1035C00000F040FE5FF0000539F8160007FA05F13B
:1035D0000842404601D1408900E0008900F006FE23
:1035E0006D1C102DF0D3641CE4B25146204600F04F
:1035F000E9FD761C182EE3D3BDE8F08754000020C7
:103600002DE9F0439846174689460546002400F008
:10361000D9FD0F4EB8F1000F16D100F013FE03E0F4
:10362000308900F0E3FD641CBC42F9D3BDE8F083AF
:1036300000F008FE308900F0D9FD6D1CEDB249465E
:10364000284600F0BFFD641CBC42F1D3EEE7000049
:1036500054000020F0B51C4615460F4606460023D0
:103660002246FFF7CDFF7019C0B20023224639462B
:10367000FFF7C6FF01232A4639463046FFF7C0FF51
:10368000381B401C81B22A463046BDE8F040012379
:10369000FFF7B6BF10B5FFF707FF002000F04AFDA7
:1036A000084CA081A089A0F50241303906D001F074
:1036B00076FA002000F03EFDA08110BD01F0E6F991
:1036C000F7E70000540000202DE9FF5FFE4D286859
:1036D000FE4CA169401A0A2875D32868A06100220F
:1036E000FB49FC48FEF788FD002204F12C01F94853
:1036F000FEF75EFDDFF8D8B304F12C0AABF1200031
:103700009AF802109BF802609BF801309BF80020A9
:103710008DE84E009AF801309AF80320EEA103F0EC
:10372000EBFBABF12001D820FFF728FF607A4FF4C4
:10373000FA794FF000084FF4A076302730B1012815
:1037400042D06FE02868A062002002E0A078002844
:10375000F8D1A0700023324619460C20FFF750FF25
:10376000002332461946D620FFF74AFFE3A118206E
:10377000FFF704FF2868A16A401A484503D9E5A16C
:103780004820FFF7FBFE2868A16A401AB0F57A7F4F
:1037900003D9E6A17820FFF7F1FE2868A16A401A54
:1037A00040F2DC51884203D9E6A1A820FFF7E6FEEB
:1037B0002868A16A401AB0F5FA6F33D90120607207
:1037C000FFF742FE2EE0E4E0E4A10020FFF7D6FE82
:1037D0000023324619461820FFF712FF0023324615
:1037E0001946D620FFF70CFF2078012811D1E149B6
:1037F0003020FFF7C3FEDF4960201E31FFF7BEFE19
:10380000DC4990203C31FFF7B9FEDB48077084F8B3
:103810000080DA4890210770D9480770D9480170B4
:1038200000F060FE607A022827D1D7A10020FFF7C0
:10383000A5FE0023324619461820FFF7E1FE0023BB
:1038400032461946D620FFF7DBFED5A13020FFF720
:1038500095FED5A14820FFF791FED5A16020FFF786
:103860008DFED5A17820FFF789FED5A19020FFF726
:1038700085FED5A1A820FFF781FE607A032839D004
:10388000042852D0052862D006287DD0904F2837D2
:1038900007287AD0082879D0092878D0A046A7F13F
:1038A000480420270A2873D00B2872D1C7A1002012
:1038B000FFF764FE0023324619461820FFF7A0FEEA
:1038C000002332461946D620FFF79AFE9BF80210D5
:1038D00000919BF801309BF80020C2A17C48203861
:1038E00003F00AFB2968D8F824204046891A494584
:1038F0007DD89AE3C1A10020FFF740FE00233246A5
:1039000019461820FFF77CFE002332461946D620C0
:10391000FFF776FEBEA13020FFF730FEBEA160208B
:10392000FFF72CFEC0A1902094E3C2A10020FFF776
:1039300025FE0023324619461820FFF761FE0023BA
:1039400032461946D620FFF75BFEC0A181E3C4A131
:103950000020FFF713FE0023324619461820FFF718
:103960004FFE002332461946D620FFF749FE834812
:10397000182101708248A8210770824801702078C0
:10398000012827D17C4805E028E044E098E2E0E205
:1039900032E33EE00770B8493020FFF7EFFDB6494B
:1039A00048201E31FFF7EAFDB34960203C31FFF7A4
:1039B000E5FDB14978205A31FFF7E0FDAE4990208E
:1039C0007831FFF7DBFDAC49A8209631FFF7D6FD33
:1039D00084F80080BDE8FF5F00F0F6BDA7A10020DD
:1039E000FFF7CCFD002332461946182000E036E3ED
:1039F000FFF706FE002332461946D620FFF700FEE9
:103A00002078012805D191A16020FFF7B7FD84F847
:103A10000080BDE8FF9F9FA10020FFF7AFFD0023BE
:103A2000324619461820FFF7EBFD002332461946AF
:103A3000D620FFF7E5FD4FF4967532233122294653
:103A40002820FFF707FE32233122DC212820FFF750
:103A500001FE322331228C212820FFF7FBFD322387
:103A600031223C212820FFF7F5FD3223312229465F
:103A70008220FFF7EFFD32233122DC218220FFF785
:103A8000E9FD322331228C218220FFF7E3FD32232E
:103A900031223C218220FFF7DDFD2078A24601285B
:103AA00010D140F20B1B31225C4659464120FFF7F2
:103AB00043FD3222BB214120FFF73EFD33226B2123
:103AC0004120F3E0A8E100004800002000000020B1
:103AD0009C010020F00600203230253032642D2574
:103AE0003032642D253032642020253032643A256E
:103AF0003032643A25303264000000002D2D2D57FD
:103B0000656C636F6D6520546F205573652D2D2D89
:103B100000000000496E74656C6C6967656E742006
:103B20004C6F676973746963730000005761726555
:103B3000686F757365204D616E6167656D656E7444
:103B4000000000002020202020202053797374657D
:103B50006D20202020202020000000002020202098
:103B6000202020204D454E552020202020202020A0
:103B700000000000680000205700002054000020D2
:103B80005500002056000020202020496E626F75ED
:103B90006E64202857617265732920202000000080
:103BA0004E616D653A000000547970653A0000007E
:103BB0004E756D6265723A00446174653A000000AA
:103BC00046726F6D3A000000546F3A0020202020AA
:103BD0002053797374656D2054696D652020202011
:103BE0002000000020202020202020253032643AB0
:103BF000253032643A253032640000002020496EBE
:103C0000626F756E642028486F75736529202000E7
:103C1000506C6163653A000054656D706572617443
:103C20007572653A0000000048756D6964697479C1
:103C30003A0000002020202020204F7574626F750C
:103C40006E64202020202020000000002020456EEF
:103C500074657220746865204E616D652E000000E9
:103C600020202020202057617265686F75736520C1
:103C70002020202020000000C20000202020204919
:103C80006E7175697279204F662057617265732075
:103C90002020000020496E76656E746F7279204F87
:103CA000662057617265732020000000FFF744FC16
:103CB00034221B214120FFF73FFC352221469B2067
:103CC000FFF73AFC3622BB219B20FFF735FC372259
:103CD0006B219B20FFF730FC38221B219B20FFF734
:103CE0002BFC4FF4FC6000F065FA002505EB051095
:103CF000002407EBC00600BF96F85810601C8142F4
:103D00007DD1032C3AD8604200EB800940F22B11A0
:103D100001EB091081B2019020222920FFF70CFC51
:103D200040F21B1101EB091081B2009020222920E2
:103D3000FFF702FC0BEB09191FFA89F12022292059
:103D4000FFF7FAFB0198202281B24120FFF7F4FB34
:103D50000098202281B24120FFF7EEFB1FFA89F183
:103D600020224120FFF7E8FB621CC0A1C04803F0FD
:103D7000C3F81FFA89F1BE4A41203EE0201F032804
:103D80003DD8604200EB800940F26B2101EB091045
:103D900081B2019020228320FFF7CEFB40F25B210D
:103DA00001EB091081B2009020228320FFF7C4FBB1
:103DB00040F24B2101EB09191FFA89F120228320DF
:103DC000FFF7BAFB0198202281B29B20FFF7B4FBDA
:103DD0000098202281B29B20FFF7AEFB1FFA89F1E9
:103DE00020229B20FFF7A8FB621CA0A1A04803F0A3
:103DF00083F81FFA89F19E4A9B20FFF7A9FB641CF8
:103E0000082CFFF679AF6D1C082DFFF66FAF002070
:103E100000F0D0F98AF8008000254FF49B7600BFAF
:103E200005EB051007EBC00494F85800012804D1F5
:103E3000224631465A20FFF78BFB94F8580002289F
:103E400004D12246E6215A20FFF782FB94F858005D
:103E5000032804D1224696215A20FFF779FB94F8D3
:103E60005800042804D1224646215A20FFF770FB4F
:103E700094F85800052804D122463146B420FFF7B3
:103E800067FB94F85800062804D12246E621B420A6
:103E9000FFF75EFB94F85800072804D122469621CC
:103EA000B420FFF755FB94F85800082804D12246A7
:103EB0004621B420FFF74CFB6D1C072DB0DBA8E5B5
:103EC0006CA10020FFF75AFB002332461946182048
:103ED000FFF796FB002332461946D620FFF790FBEA
:103EE0002078A1460128EAD10024621C68A160481C
:103EF00003F002F8601C00EB4000C006000E5C49B5
:103F0000FFF73CFB641C082CEFDB0025BA4605EBF1
:103F1000051100240AEBC106671C96F85810B94237
:103F20000ED1F06F0090621C5EA15148336F02F019
:103F3000E3FF07EB4700C006000E4D49FFF71EFBED
:103F4000641C082CE8DB6D1C082DE0DB89F8008080
:103F50005FE559A10020FFF711FB00233246194607
:103F60001820FFF74DFB002332461946D620FFF7F5
:103F700047FB2078A2460128A1D10024621C55A14C
:103F80003B4802F0B9FF601C00EB4000C006000E89
:103F90003749FFF7F3FA641C082CEFDB0026B9461B
:103FA00006EB0611002409EBC10500BF95F8581077
:103FB000671CB94211D1D5E92021686F8DE807004F
:103FC000621C4AA12A48AB6F02F096FF07EB47003C
:103FD000C006000E2649FFF7D1FA641C082CE5DB69
:103FE000761C082EDCDB0123C0228F211920FFF76D
:103FF00007FB8AF800800CE542A10020FFF7BEFA1B
:104000000023324619461820FFF7FAFA00233246F9
:104010001946D620FFF7F4FA9AF8021000919AF8A0
:1040200001309AF803203DA158E4417801290FD1CD
:1040300098F80A0020B1012805D0022806D007E030
:10404000E771277204E0A772E77201E06773A77354
:104050000749602004B0BDE8F05FFFF78FBA296818
:104060004162417881F001014170DEE72564000082
:104070007C010020202020416C61726D2053696D0D
:10408000756C6174696F6E20202020200000000094
:1040900025643A202020203027432020202030256E
:1040A0002500000025643A20202533642743202082
:1040B0002025326425250000202020202020416C6E
:1040C00061726D2053657474696E67202020202012
:1040D0000000000025643A2020307E202030274355
:1040E0002020307E203025250000000025643A2560
:1040F00033647E2533642743202532647E25326471
:1041000025250000202020202053797374656D2020
:104110004461746520202020200000002020202001
:10412000203230253032642D253032642D25303256
:104130006400000070B51D490A6842F400720A600C
:104140000A6842F480720A60184C103C226842F0FF
:1041500020022260164A1060086840F020000860C3
:1041600000BF00BF00BF206840F020002060206832
:1041700040F480702060FFF727F94FF09041886A83
:1041800040F48070886200BF00BF00BF0848001F75
:10419000006885B2886940F480708861FFF72AF969
:1041A000206840F400702060284670BD2804004854
:1041B0001408004801B5BDF800000149488108BD58
:1041C0005400002010B50C460146202000F068F88D
:1041D0002146BDE81040212000F062B801B5BDF8CD
:1041E00000000149088108BD54000020134A1168ED
:1041F00041F400711160114910390B6843F4807368
:104200000B600B6843F020030B600D4B18601068C7
:1042100040F02000106000BF00BF00BF086840F001
:1042200020000860086840F48070086000BF00BF8C
:1042300000BF086840F40070086070472804004818
:10424000140800481449086840F4007008600868C1
:1042500040F48070086010481038026842F0200274
:1042600002600E4B22221A600A6842F020020A60A5
:1042700000BF00BF00BF016841F02001016001687C
:1042800041F48071016000BF00BF00BF016841F4CC
:1042900000710160704700002804004814080048BD
:1042A000184B10B51A6842F400721A601A6842F48A
:1042B00080721A60134A103A146844F020041460A3
:1042C000114C2060186840F02000186000BF00BF4B
:1042D00000BF106840F020001060106840F480704B
:1042E00010602160186840F02000186000BF00BF17
:1042F00000BF106840F020001060106840F480702B
:10430000106010BD28040048140800482DE9FC5F27
:104310005C4802685C49CB69D21AB2F5FA7F76D361
:104320000068C861087D0190C87C009091F812E097
:1043300091F811B091F81090CE7B8D7B91F815A07B
:10434000524F002303EB031207EBC202002092F846
:10435000584000BF00F1010C644574D1D2E91CC87B
:10436000C4450DDCD2F87880C44509DBD2F87CC0A6
:10437000D2F88480C44503DBD2F88080C44536DDA2
:1043800070B1012811D0022814D0032817D00428B6
:104390001AD005281DD0062820D0072823D052E0A7
:1043A00091F816C08CF0010C4BE091F816C08CF01F
:1043B000020C46E091F816C08CF0040C41E091F834
:1043C00016C08CF0080C3CE091F816C08CF0100C74
:1043D00037E091F816C08CF0200C32E091F816C04E
:1043E0008CF0400C2DE0887D80F0800046E078B1B4
:1043F000012812D0022815D003281AD004281CD076
:1044000005282CD006282FD0072834D01BE037E011
:10441000887D2843887501209CE791F816C04CEAF6
:10442000060C0EE091F8168048EA090881F816801B
:1044300009E091F816C0D8461AE091F816C0F04687
:1044400016E081F816C0401C082883DB5B1C082B93
:10445000FFF678AF887DBDE8FC5F02F033BF91F8CE
:1044600016C0DDF8008003E091F816C0DDF8048086
:104470004CEA080CE5E7887D40EA0A008875E5E724
:10448000BDE8FC9F4800002000000020C40100207F
:1044900000EB8100006E00F0F84070478068C0F3C8
:1044A000C00070478068C0F3800070478068C0F328
:1044B00080007047042303EAD15310B518444369C0
:1044C000C1F3045107248C40A3438A401343436142
:1044D00010BD00EB8100016E21F000411143016627
:1044E0007047000070B5374C92B004F11405E078C5
:1044F0002178B0FBF1F0C0EB001005EB400108A8FB
:104500001E3902F0F9FCA07901280BD1E07821785E
:10451000B0FBF1F0C0EB001005EB400168463C3900
:1045200002F0EAFC607901280AD1E0782178B0FB3A
:10453000F1F0C0EB001005EB4001684602F0DCFC36
:104540004FF6FF76ADF84060BDF840006081002571
:10455000ADF84050BDF84000208108A9E078FFF791
:104560000DF8ADF84050BDF840006081ADF84060F6
:10457000BDF840002081A07980B1E0786178884260
:1045800003D11049A078503103E02178401AC0B21D
:104590006946FEF7F3FFA57112B070BD607900287F
:1045A000FAD0E078A178884203D1064960781431C6
:1045B00003E021780844C0B26946FEF7DFFF657169
:1045C000EAE700005400002070B5374C92B004F1C7
:1045D0006E05E0782178B0FBF1F0C0EB001005EB40
:1045E000400108A83C3902F087FCA07901280BD1D2
:1045F000E0782178B0FBF1F0C0EB001005EB400152
:1046000068465A3902F078FC607901280BD1E078CD
:104610002178B0FBF1F0C0EB001005EB40016846DB
:104620001E3902F069FC4FF6FF76ADF84060BDF828
:10463000400060810025ADF84050BDF84000208169
:1046400008A9E078FEF79AFFADF84050BDF84000A9
:104650006081ADF84060BDF840002081A07978B15C
:10466000E0786178884202D11049A07803E021788F
:10467000401AC0B26946FEF781FFA57112B070BD45
:1046800060790028FAD0E078A178884203D1064901
:1046900060786E3103E021780844C0B26946FEF7C5
:1046A0006DFF6571EAE7000054000020580100200A
:1046B00030B58BB0002408940994202168460A94F0
:1046C000FBF7DEFD1B484FF0A0410425C0E90014B4
:1046D0008460C4600461C0E9054504774477012122
:1046E000016280F82440C462046380F83840C463E7
:1046F00080F84040FCF7CAFC08B1FCF747FA08A96B
:104700000C480894FCF744FA08B1FCF73FFA0A4851
:1047100000900620CDE901047F200594CDE9030532
:1047200069460448FCF79EFA002801D0FCF72EFAEF
:104730000BB030BD180600200008302E30B589B00F
:1047400020216846FBF79CFD184817490024C0E962
:1047500000148460C46004250461C0E90545047741
:1047600044770121016280F82440C462046380F828
:104770003840C46380F84040FCF788FC08B1FCF77F
:1047800005FA0B4800900620CDE901047F2005942E
:10479000CDE9030569460548FCF764FA002801D015
:1047A000FCF7F4F909B030BD000100508406002088
:1047B0000080F03E2DE9F04F87B014216846FBF7EA
:1047C0005FFD4248C16C41F00401C164C16C01F05D
:1047D00004010591C16C41F02001C164C16C01F07C
:1047E00020010591C16C41F00101C164C16C01F06F
:1047F00001010591C16C41F00201C164C16C01F07D
:1048000002010591C16C41F00801C164C06CDFF880
:10481000C08000F00800059001224FF47F4140461F
:10482000FCF733FF0022FF214046FCF72EFF4FF438
:1048300080764FF09049002231464846FCF725FF2C
:10484000DFF890A0002204215046FCF71EFFDFF89D
:1048500088B04FF44877002239465846FCF715FFD8
:104860004FF6FF70009001250024CDE90154694600
:1048700040460394FCF720FECDE9005469464846C3
:104880000295FCF719FE07208DE83100694658466D
:10489000FCF712FE0096CDE90154694648460394A0
:1048A000FCF70AFE04200090CDE901546946504609
:1048B0000394FCF701FE0097CDE901546946584680
:1048C0000394FCF7F9FD07B0BDE8F08F001002403B
:1048D00000080048000C00480004004810B586B0ED
:1048E00014216846FBF7CCFC1F4800241D490594A1
:1048F000C0E900147D21816041F27071C0E90314A8
:1049000044610462FDF7A6FC08B1FCF73FF90820FA
:104910008DF8000030208DF8010045208DF8020050
:1049200001940394012269460F480494FDF740FD69
:1049300008B1FCF72BF905208DF8140001208DF843
:10494000150006208DF8160023208DF8170001228F
:1049500005A90548FDF7D8FC002801D0FCF716F999
:1049600006B010BD00280040F00600203EB500242F
:104970000F48009401940D490294016041F63F7183
:10498000C0E9011463218461C160FDF7FCFD08B139
:10499000FCF7FCF80094694605480294FDF7A4FD75
:1049A000002801D0FCF7F2F83EBD000000100040E6
:1049B000180700203EB500240F48009401940D49CB
:1049C0000294016041F63F71C0E9011442F20F7197
:1049D0008461C160FDF7D7FD08B1FCF7D7F80094FA
:1049E000694605480294FDF77FFD002801D0FCF7D9
:1049F000CDF83EBD0014004064070020184810B5F3
:104A0000164901604FF416514160002181600C226B
:104A1000C160C0E904128161C161016241628162C9
:104A2000FEF7D8F808B1FCF7B1F800210C48FDF703
:104A3000DAFF08B1FCF7AAF800210948FDF7ADFF3D
:104A400008B1FCF7A3F80648FDF787FF002803D05C
:104A5000BDE81040FCF79AB810BD000000380140D6
:104A6000B0070020FEE70000014600206FF02F0392
:104A700006E000BF00EB800003EB40001044491C3F
:104A80000A78002AF6D170477047704730B5012187
:104A90000020FFF705FC4FF47A70FCF769F800215D
:104AA0000120FFF7FDFB41F290711020FFF7F8FBAA
:104AB0004FF41C516020FFF7F3FB01216120FFF749
:104AC000EFFB02214620FFF7EBFB48F21001132019
:104AD000FFF7E6FB48F2FE011220FFF7E1FB4FF47F
:104AE000A0610220FFF7DCFB41F230010320FFF759
:104AF000D7FB40F2033421463020FFF7D1FB21469B
:104B00003120FFF7CDFB21463220FFF7C9FBE51E20
:104B100029463320FFF7C4FB03213420FFF7C0FBF5
:104B200021463520FFF7BCFB14213620FFF7B8FBE8
:104B300021463720FFF7B4FB21463820FFF7B0FBB2
:104B400021463920FFF7ACFB29463A20FFF7A8FBA6
:104B500003213B20FFF7A4FB21463C20FFF7A0FBED
:104B60004FF4A0513D20FFF79BFB4FF400719220C2
:104B7000FFF796FB21469320FFF792FB40F60D01CD
:104B80009020FFF78DFB41F218010320FFF788FB0F
:104B9000BDE8304040F273110720FFF781BB10B52C
:104BA00043F20801E320FFF77BFB1221E720FFF728
:104BB00077FB41F23121EF20FFF772FB002101204A
:104BC000FFF76EFB4FF4E0610220FFF769FB41F253
:104BD00030010320FFF764FB00210420FFF760FB96
:104BE00040F207210820FFF75BFB00210920FFF7B7
:104BF00057FB00210A20FFF753FB00210C20FFF791
:104C00004FFB00210D20FFF74BFB00210F20FFF78A
:104C100047FB00211020FFF743FB07211120FFF77E
:104C20003FFB00211220FFF73BFB00211320FFF781
:104C300037FBC820FCF72EFC41F290611020FFF7F3
:104C40002FFB40F227211120FFF72AFB3220FCF72F
:104C500021FC1D211220FFF723FB3220FCF71AFC58
:104C60004FF400611320FFF71BFB14212920FFF7ED
:104C700017FB0B212B20FFF713FB3220FCF70AFC5C
:104C800000212020FFF70CFB00212120FFF708FB6B
:104C900007213020FFF704FB40F207713120FFF7B6
:104CA000FFFA06213220FFF7FBFA40F204713520AB
:104CB000FFF7F6FA41F604713620FFF7F1FA042106
:104CC0003720FFF7EDFA00213820FFF7E9FA40F22C
:104CD00006713920FFF7E4FA40F201713C20FFF73A
:104CE000DFFA0F213D20FFF7DBFA00215020FFF70C
:104CF000D7FAEF215120FFF7D3FA00215220FFF716
:104D0000CFFA40F23F115320FFF7CAFA4FF41C517B
:104D10006020FFF7C5FA01216120FFF7C1FA0021E9
:104D20006A20FFF7BDFA00218020FFF7B9FA0021C1
:104D30008120FFF7B5FA00218220FFF7B1FA0021A8
:104D40008320FFF7ADFA00218420FFF7A9FA0021A4
:104D50008520FFF7A5FA10219020FFF7A1FA002186
:104D60009220FFF79DFA03219320FFF799FA4FF461
:104D700088719520FFF794FA00219720FFF790FAA9
:104D800000219820FFF78CFA41F218010320FFF769
:104D900087FABDE8104040F273110720FFF780BA90
:104DA000010901EB810100F00F0000EB4100C0B2EE
:104DB00070470022014602E00A39C9B2521C0A2992
:104DC000FAD2100741EA1060704700002DE9F04761
:104DD000104C814600252068400618D4206840F019
:104DE00080002060FCF756FC06464FF47A780327D3
:104DF00008E000BFFCF74EFC801B404502D90325AC
:104E000089F825702068400601D4032DF2D1284688
:104E1000BDE8F0870C2800402DE9F0410646134814
:104E20000025016821F080010160104C0C342068DD
:104E30004FF00307800607D43046FDF721FB90B101
:104E400086F8257003250EE0206820F02000206001
:104E50003046FDF715FB10B186F825700325206854
:104E600040F0200020602846BDE8F0810C2800407A
:104E70007047FCF715BC000010B5A4B03821684697
:104E8000FBF7FEF914211FA8FBF7FAF944210EA83D
:104E9000FBF7F6F94FF40070FCF798FC03244FF48D
:104EA0008030CDE9004000120390402004900220A1
:104EB000079014210890CDE909010B900C900D90FA
:104EC0006846FCF76FFF0F20CDE91F0400242194F2
:104ED000229403211FA82394FCF71AFE0648CDE96B
:104EE0000E0440071D904FF440701E900EA8FCF772
:104EF000CBFC24B010BD000001800800054801680B
:104F000041F47001016003494FF00060803908608E
:104F10007047000088ED00E00148FDF7B8BB0000D5
:104F2000180700202DE9F0430268234B234D244E3F
:104F3000244C4FF08049984207D0484505D0A842FC
:104F400003D0B04201D0A04203D122F070074A68DA
:104F50003A431D4FDFF874C0DFF8748098420DD0DB
:104F600048450BD0A84209D0B04207D0A04205D096
:104F7000B84203D0604501D0404503D122F44075CA
:104F8000CA682A434D6922F080022A4302608A6877
:104F9000C2620A688262984207D0A04205D0B84235
:104FA00003D0604501D0404501D109690163012169
:104FB0004161BDE8F0830000002C01400004004086
:104FC000000800400034014000400140004401401E
:104FD000004801403FB514A1D1E90021CDE90021ED
:104FE00013A2D2E90012CDE90212416EB9B10268F2
:104FF00091689268C1F34261520F1DF80240E500CA
:1050000002ACA25CB5FBF2F2A0F86A201DF8012008
:10501000615CD200B2FBF1F1A0F868103FBD012144
:10502000A0F86A10F8E70000010101030701000081
:10503000080402040801010190F82810C90706D0ED
:1050400001684A68C36A22F400321A434A6090F841
:105050002810890706D501684A68036B22F480325C
:105060001A434A6090F82810490706D501684A6833
:10507000436B22F480221A434A6090F828100907F3
:1050800006D501684A68836B22F400421A434A60DD
:1050900090F82810C90606D501688A68C36B22F407
:1050A00080521A438A6090F82810890606D5016854
:1050B0008A68036C22F400521A438A6090F8281020
:1050C000490611D501684A68436C22F480121A43DC
:1050D0004A60416CB1F5801F06D101684A68836C53
:1050E00022F4C0021A434A6090F82810090606D537
:1050F00001684A68C06C22F4002202434A6070478B
:10510000F8B500260446C0F88860FCF7C3FA0546E7
:10511000206800686FF07E47000708D52B46002204
:105120004FF400112046009700F009FD60B9206897
:10513000006840070AD52B4600224FF48001204624
:10514000009700F0FCFC08B10320F8BD2020C4F853
:105150008000C4F8840084F87C600020F8BD10B59D
:10516000806A0021A0F85E10A0F85610FDF763FCDD
:1051700010BD000001680A6822F490720A6001689C
:105180008A68044B1A408A602021C0F884100021EC
:10519000C1667047FEFFFFEF10B5B0F86020D0F891
:1051A00084300168222B04D0886940F008008861AF
:1051B00010BD496A836D11401980816D891C81651C
:1051C000B0F85E10491EA0F85E10B0F85E1000291D
:1051D000EED101680A6822F490720A6001688A6858
:1051E00022F001028A602021C0F884100021C166EB
:1051F000FDF7DEFD10BD000070B50446B0F860603C
:10520000D0F88400222805D02068816941F0080187
:10521000816170BDB4F8685023E02068406AA16DD8
:1052200030400880A06D801CA065B4F85E00401E70
:10523000A4F85E00B4F85E0088B92068016821F423
:105240008071016020688168114A114081602020CE
:10525000C4F884000020E0662046FDF7A9FD6D1E1D
:10526000ADB2002DD9D1B4F85E000028D1D0B4F889
:1052700068108142CDD92068816821F08051816019
:105280000448E0662068016841F02001016070BDBB
:10529000FEFFFFEF9951000810B5B0F86020D0F87C
:1052A00084300168222B04D0886940F008008861AE
:1052B00010BD496A1140826D1170816D491C816574
:1052C000B0F85E10491EA0F85E10B0F85E1000291C
:1052D000EED101680A6822F490720A6001688A6857
:1052E00022F001028A602021C0F884100021C166EA
:1052F000FDF75EFD10BD000070B50446B0F86060BB
:10530000D0F88400222805D02068816941F0080186
:10531000816170BDB4F8685023E02068406AA16DD7
:1053200030400870A06D401CA065B4F85E00401EBF
:10533000A4F85E00B4F85E0088B92068016821F422
:105340008071016020688168114A114081602020CD
:10535000C4F884000020E0662046FDF729FD6D1E9C
:10536000ADB2002DD9D1B4F85E000028D1D0B4F888
:1053700068108142CDD92068816821F08051816018
:105380000448E0662068016841F02001016070BDBA
:10539000FEFFFFEF995200082DE9F05F0446016817
:1053A00080682369E5691843636900272B43184324
:1053B000636EFA4A03430868F94D284018430860B1
:1053C00020684168E36821F4405119434160216835
:1053D000A069914201D0236A18438B68F14D2B409C
:1053E00003438B602068C16A636A21F00F0119438F
:1053F000C162ED4B2068ED4998420DD1D1F888107B
:1054000011F0030106D001295AD0022956D00329F0
:105410003FD157E001253DE0E54B98420BD1D1F853
:10542000881011F00C0147D0042949D0082945D033
:105430000C292ED146E0DF4B98420BD1D1F88810D1
:1054400011F0300138D010293AD0202936D0302937
:105450001FD137E0D84B98420BD1D1F8881011F00A
:10546000C00129D040292BD0802927D0C02910D1B4
:1054700028E090420DD1D1F8881011F440611BD082
:10548000B1F5806F1CD0B1F5006F17D0B1F5406F4A
:1054900018D01025DFF824A34FF480764FF00009D0
:1054A0004FF4004B90426ED175B1022D29D0042DDE
:1054B00059D0082D68D176E00025EBE70225E9E711
:1054C0000425E7E70825E5E7FCF710FC4DE0012897
:1054D00051D0022851D0032851D0042851D005289A
:1054E00053D0062853D0072853D0082853D0092872
:1054F00053D00A2853D00B2853D03AE0B1FBF0F038
:105500006CE0606AA8B1012817D0022817D00328E0
:1055100017D0042817D0052817D0062817D0072839
:1055200017D0082817D0092817D00A2817D00B2819
:1055300017D00120BAFBF0F050E00220FAE7042077
:10554000F8E70620F6E70820F4E70A20F2E70C2047
:10555000F0E71020EEE72020ECE74020EAE780208B
:10556000E8E73046E6E7FCF7E5FB0146606A00281D
:10557000ADD10120C2E70220C0E70420BEE706202B
:10558000BCE70820BAE761E14AE00A20B6E70C2050
:10559000B4E71020B2E72020B0E74020AEE780203B
:1055A000ACE73046AAE7606AA8B1012822D00228F9
:1055B00022D0032822D0042822D0052822D0062871
:1055C00022D0072822D0082822D0092822D00A2851
:1055D00022D00B2822D00120BBFBF0F0002820D0E5
:1055E0006168884601EB4101814219D8B0EB083F60
:1055F00016D817E00220EFE70420EDE70620EBE7DE
:105600000820E9E70A20E7E70C20E5E71020E3E7B8
:105610002020E1E74020DFE78020DDE73046DBE7C0
:10562000012739E27DB3022D61D0042D7DD0082DF4
:10563000F6D1606AA8B1012878D0022877D0032873
:1056400076D0042875D0052874D0062873D0072892
:1056500072D0082871D0092870D00A286FD00B2882
:1056600000D0012632464D46002358460021FAF765
:10567000CFFD090241EA106102024FEA58001018FA
:105680006941424670E0FFE7FCF730FB0146606A83
:10569000A8B1012817D0022817D0032817D0042852
:1056A00017D0052817D0062817D0072817D00828A4
:1056B00017D0092817D00A2817D00B2800D00126A8
:1056C00032464D468CE00226FAE70426F8E7062625
:1056D000F6E70826F4E70A26F2E70C26F0E710269C
:1056E000EEE72026ECE74026EAE78026E8E7606A56
:1056F000A8B1012824D0022824D0032824D00428CB
:1057000024D0052824D0062824D0072824D008280F
:1057100024D0092824D00A2824D00B2800D0012620
:1057200032464D4600235046A0E726E07AE07BE073
:105730007CE07DE07EE07FE080E081E082E083E06D
:105740000226EDE70426EBE70626E9E70826E7E769
:105750000A26E5E70C26E3E71026E1E72026DFE747
:105760004026DDE78026DBE70023FAF751FD144AE7
:10577000A0F54071914271D952E7FCF7DBFA01467E
:10578000606A50B3012839D0022839D0032839D0B3
:10579000042839D0052839D0062813E000800040BD
:1057A000F369FFCFFFF4FF11003801400010024001
:1057B0000044004000480040004C00400024F40039
:1057C000FFFC0F0024D0072824D0082824D0092863
:1057D00024D00A2824D00B2800D001264D4632467A
:1057E000002308461946FAF713FD0902626841EAE8
:1057F00010610302500818186941B5E70226EDE769
:105800000426EBE70626E9E70826E7E70A26E5E7A8
:105810000C26E3E71026E1E72026DFE74026DDE758
:105820008026DBE702261DE704261BE7062619E78C
:10583000082617E70A2615E70C2613E7102611E7B6
:1058400020260FE740260DE780260BE7E0694FF69C
:10585000EF78584570D1092D8ED200E01AE1DFE8CB
:1058600005F006093C05800505058300D8E6FCF730
:105870003DFA01E0FCF74CFA0146606AA8B1012844
:1058800015D0022815D0032815D0042815D00528D6
:1058900015D0062815D0072815D0082815D00928B6
:1058A00015D00A2815D00B2814D0012612E00226A4
:1058B00010E004260EE006260CE008260AE00A2680
:1058C00008E00C2606E0102604E0202602E0402630
:1058D00000E08026B1FBF6F01AE0606AA8B101286A
:1058E0002BD002282BD003282BD004282BD005281E
:1058F0002BD006282BD007282BD008282BD00928FE
:105900002BD00A282BD00B2800D00126BAFBF6F0AA
:105910004100606801EB5001B1FBF0F080B2A0F1F2
:1059200010014145A2D84FF6F0710140C0F342008A
:1059300001432068C160AFE046E00226E6E70426A6
:10594000E4E70626E2E70826E0E70A26DEE70C267B
:10595000DCE71026DAE72026D8E74026D6E78026BF
:10596000D4E7FCF7E7F987E7606AA8B1012817D008
:10597000022817D0032817D0042817D0052817D0DD
:10598000062817D0072817D0082817D0092817D0BD
:105990000A2817D00B2800D00126BBFBF6F0B7E78A
:1059A0000226FAE70426F8E70626F6E70826F4E7D3
:1059B0000A26F2E70C26F0E71026EEE72026ECE7B1
:1059C0004026EAE78026E8E7092DBFF4D5AEDFE8F8
:1059D00005F006093C0583050505860020E6FCF771
:1059E00085F901E0FCF794F90146606AA8B1012845
:1059F00015D0022815D0032815D0042815D0052865
:105A000015D0062815D0072815D0082815D0092844
:105A100015D00A2815D00B2814D0012612E0022632
:105A200010E004260EE006260CE008260AE00A260E
:105A300008E00C2606E0102604E0202602E04026BE
:105A400000E08026B1FBF6F11AE0606AA8B10128F7
:105A50002ED002282ED003282ED004282ED00528A0
:105A60002ED006282ED007282ED008282ED0092880
:105A70002ED00A282ED00B2800D00126BAFBF6F132
:105A8000606801EB5001B1FBF0F080B2A0F11001B1
:105A90004145A3D82168C8600120A4F86A0024F811
:105AA000680F3846C4F80490C4F80890BDE8F09F29
:105AB0000226E3E70426E1E70626DFE70826DDE71E
:105AC0000A26DBE70C26D9E71026D7E72026D5E7FC
:105AD0004026D3E78026D1E7FCF72CF984E7606AFB
